:02000000A62B2D
:0E000600033083120313FD00FD0B07280800D2
:0A0014000320061603200612080060
:04001E0000000800D6
:100022008312031306118611B8304C0488000A208B
:020032000800C4
:10003400831203130612061586114C0888000A2041
:020044000800B2
:100046007F30831203134C05F1007108CC00711F39
:0E0056002F2806148610312806108614080084
:100064007F30831203134C05F0007008CC00061196
:100074008611BF30F0057008CC0070177008CC00F2
:08008400700888000A20080042
:10008C00FF308316031388000F200F2083120615F0
:10009C0006128615061603200808CC0006128611D7
:1000AC000F200F208316880183124C08F0000800E3
:1000BC0083120313FB01FA01F9018030F800F10CF3
:1000CC00F00C031C72287408F90775080318750FD7
:1000DC00FA070318FB0A0310F01F7A287408FA07B2
:1000EC0075080318750FFB07FB0CFA0CF90CF80CD0
:1000FC00031C65287B08F3007A08F2007908F100EC
:06010C007808F000080075
:0E011200831203132C088A002B0882000800B9
:100120000030831203134602031CA32846087F3CB9
:10013000031CA32800304702031CA32847083F3CA8
:10014000031CA328A428F2284608CC002320470833
:10015000CC00CC0CCC13CC0CCC13CC0CCC1311207D
:100160004608CC00322046207008CB00462070089C
:10017000CB004708CC00CC0CCC13CC0CCC13CC0C53
:10018000CC1311204608CC00322007304705F00080
:100190007008C9007008F1000130F00071080319FF
:1001A000D528F00D7010FF3ECF287008C9007009E7
:1001B000CA00E3284A08CB05EF284908CB04EF28FA
:1001C0004908CB06EF284808003A0319DA284808FE
:1001D000013A0319DD284808023A0319E0284B08C0
:0601E000CC001A2008000B
:1001E6000030831203133E02031CFE283E087F3CA8
:1001F600031CFE28FF282C2900303C020318042982
:10020600BC013C083F3C03180A293F30BC000030C3
:100216003D0203180F29BD013D083F3C031815296F
:100226003F30BD003C083D0203181F293C08C000B2
:100236003D08BC004008BD003C083D02031C2C29BB
:100246003E08C6003C08C7003F08C8009020BC0A0C
:040256001F29080054
:10025A000030831203133E02031C38293E083F3C38
:10026A00031C38293929662900303C0203183E2923
:10027A00BC013C087F3C031844297F30BC00003095
:10028A003D0203184929BD013D087F3C03184F2947
:10029A007F30BD003C083D02031859293C08C000C4
:1002AA003D08BC004008BD003C083D02031C66290D
:1002BA003C08C6003E08C7003F08C8009020BC0A98
:0402CA0059290800A6
:1002CE00831203133E08073C03186E29FA292908E6
:1002DE003C02F0002A08031C013EF101F10226083F
:1002EE00F400F5015E207008C4007108C5003D08D9
:1002FE00CC0032203E08CC001120C001260840025E
:10030E000318D9293D087F3C03188E29FA293D0888
:10031E00CC0023203E08CC0011203D08CC0032201A
:10032E0046207008C10046207008C1003D08CC0070
:10033E0023203E08CC0011203D08CC00322044087A
:10034E002407F00025080318013E4507F100700848
:10035E00AB007108AC0089208A110A12F0007008F7
:10036E00C200C40A0319C50A7009C300C72943088D
:10037E00C100D3294208C100D3294208C106D3299E
:10038E003F08003A0319BE293F08013A0319C12953
:10039E003F08023A0319C4294108CC001A20BD0AAD
:1003AE00C00A85293D08CC0023203E08CC00112030
:1003BE003D08CC003220FF30C200C301F2294208B2
:1003CE00C1004208CC001A20FA294308C100430894
:1003DE00CC001A20FA293F08003A0319E6293F08F3
:0803EE00013A0319EC29080093
:1003F6000030831203133206031D032A0030310630
:10040600031D0D2A2D08C6002F08C7003308C80093
:100416009020F42AB801B9012D082F02BA002E083F
:10042600031C013E3002BB003108B6003208B7009B
:100436003108F0003208F100F00DF10D701070086F
:10044600B4007108B5007008033CB4007108031CC1
:10045600013EB501B5023608013EF1000030031831
:10046600013E3707F20080303906F0008030720610
:100476007002031D402A710838020318F42A38084E
:100486002D07C60036082F07C7003308C80090207E
:1004960038082D07C60036082F02C7003308C800E3
:1004A60090208030F000803039067002031D5D2AEE
:1004B6003808003C0318712A38082D02C600360891
:1004C6002F07C7003308C800902038082D02C60041
:1004D60036082F02C7003308C800902039083706AF
:1004E600031D772A360838060319B02A36082F075F
:1004F600C6003A08C60238082F07C7003308C800E6
:10050600902036082F02C6003A08C60238082F0780
:10051600C7003308C80090208030F00080303906CC
:100526007002031D982A3808003C0318B02A3608C2
:100536002F07C6003A08C60238082F02C70033083C
:10054600C800902036082F02C6003A08C6023808AE
:100556002F02C7003308C800902080303506F0000F
:1005660080307002031DB92A003034020318D02AE5
:100576003808F0003908F100F00DF10D7010F00D9B
:10058600F10D70100630F0070318F10A7008B40771
:1005960071080318013EB507F02A36083802F30041
:1005A6003708031C013E3902F4007308F000740892
:1005B600F100F00DF10D7010F00DF10D70100A3014
:1005C600F0070318F10A7008B40771080318013E12
:1005D600B5070130B602031CB703B80A0319B90AF6
:0405E6002E2A0800B1
:1005EA0083120313B1012808003A031D082B0530B2
:1005FA00A6000730A7003630A4000430A50020303A
:10060A00A9000030AA0031082D0784000008031948
:10061A00202B31082D0784000008BC002E08BD00DD
:10062A002F08BE003008BF006721260AF0007008B4
:08063A00AE07B10A082B08000D
:10064200831203132D08BC002F08BD002E08BE0024
:100652003108BF002D212D08BC002F08BD00300835
:10066200BE003108BF002D212E08BC003008BD009D
:100672002D08BE003108BF00F3202E08BC00300850
:0E068200BD002F08BE003108BF00F3200800A5
:100690008312031306108614AF012F08073C031CB6
:1006A000602B2F08CC001120AE012E083F3C031C0C
:1006B0005E2B2D08CC001A20AE0A552BAF0A4D2B0D
:1006C00086100614AF012F08073C031C762B2F0859
:1006D000CC001120AE012E083F3C031C742B2D08CA
:0E06E000CC001A20AE0A6B2BAF0A632B080069
:1006EE0083120313A80183168612061206118611B1
:1006FE000610861083128612831688018312061145
:10070E0086110610861486163F3088000A20C030E7
:10071E0088000A20061486103F3088000A20C03058
:06072E0088000A2008000B
:1007340089208A110A128000840AAB0A0319AC0AC0
:08074400F003031D9A2B0800CD
:10074C00553083120313A0004D30A1004730A20096
:10075C00A3018316031788018901860103138801FD
:10076C007723AD0148230F30AD002830AE004B305D
:10077C00AF000530B0000130B10021234C30AD008A
:10078C002830AE007330AF001430B0000130B1002F
:10079C0021235630AD001E30AE006930AF0014304E
:1007AC00B0000130B10021231E30BC002830BD0048
:1007BC006030BE000130BF00F3205F30C60019303E
:1007CC00C7000130C80090201E30AD000030AE00D4
:1007DC003230AF000030B0000A30B1000030B2004F
:1007EC000130B300FB213C30AD000030AE003230A4
:1007FC00AF000030B0000A30B1000030B200013060
:10080C00B300FB216430AD000030AE003230AF00DD
:10081C000030B0000A30B1000030B2000130B3003B
:10082C00FB213C30C6003230C7000130C80090209C
:10083C001E30C6003230C7000130C8009020643032
:10084C00C6003230C7000130C80090202030AD0007
:10085C002230AE000330AF000130B000F522352C51
:10086C0000340034003400340034003400345F347D
:10087C0000340034003407340034073400341434AA
:10088C007F3414347F34143424342A347F342A349F
:10089C001234233413340834643462343634493417
:1008AC0055342234503400340534033400340034CD
:1008BC0000341C34223441340034003441342234AA
:1008CC001C34003408342A341C342A3408340834D8
:1008DC0008343E3408340834003450343034003496
:1008EC000034083408340834083408340034303404
:1008FC0030340034003420341034083404340234DE
:10090C003E345134493445343E34003442347F341F
:10091C004034003442346134513449344634213447
:10092C00413445344B3431341834143412347F345C
:10093C001034273445344534453439343C344A3446
:10094C0049344934303401347134093405340334B6
:10095C00363449344934493436340634493449340C
:10096C0029341E3400343634363400340034003428
:10097C005634363400340034003408341434223401
:10098C0041341434143414341434143441342234B3
:10099C00143408340034023401345134093406342C
:1009AC0032344934793441343E347E341134113488
:1009BC0011347E347F3449344934493436343E342E
:1009CC0041344134413422347F3441344134223473
:1009DC001C347F3449344934493441347F3409342C
:1009EC000934013401343E3441344134513432340D
:1009FC007F340834083408347F34003441347F3475
:100A0C00413400342034403441343F3401347F3499
:100A1C0008341434223441347F344034403440346C
:100A2C0040347F340234043402347F347F34043451
:100A3C00083410347F343E344134413441343E3434
:100A4C007F3409340934093406343E34413451348A
:100A5C0021345E347F340934193429344634463415
:100A6C004934493449343134013401347F3401344C
:100A7C0001343F344034403440343F341F3420344C
:100A8C00403420341F347F342034183420347F34E5
:100A9C006334143408341434633403340434783435
:100AAC000434033461345134493445344334003410
:100ABC0000347F344134413402340434083410346B
:100ACC002034413441347F34003400340434023453
:100ADC000134023404344034403440344034403423
:100AEC00003401340234043400342034543454348B
:100AFC00543478347F3448344434443438343834BF
:100B0C004434443444342034383444344434483445
:100B1C007F343834543454345434183408347E34D8
:100B2C0009340134023408341434543454343C340D
:100B3C007F340834043404347834003444347D3441
:100B4C00403400342034403444343D3400340034D8
:100B5C007F34103428344434003441347F344034EE
:100B6C0000347C3404341834043478347C34083441
:100B7C00043404347834383444344434443438340D
:100B8C007C341434143414340834083414341434C9
:100B9C0018347C347C340834043404340834483439
:100BAC00543454345434203404343F3444344034B6
:100BBC0020343C344034403420347C341C342034D5
:100BCC00403420341C343C344034303440343C34D5
:100BDC00443428341034283444340C3450345034D5
:100BEC0050343C344434643454344C344434003441
:100BFC000834363441340034003400347F3400344B
:100C0C0000340034413436340834003408340834A9
:100C1C002A341C34083408341C342A34083408347C
:04400E00D2230007B2
:00000001FF
